S01F00006174616D793030315F526F636B49744F75745F6D61696E2E7372656371
S113000061C000007CC000007AC0000078C000001D
S113001076C0000074C0000072C0000070C0000010
S11300206EC000006CC000006AC0000068C0000020
S113003066C0000010C1000062C0000060C0000083
S11300405EC000005CC000005AC0000058C0000040
S113005056C0000054C0000052C0000050C0000050
S11300604EC000004CC000004AC0000048C0000060
S113007046C0000044C0000042C0000040C0000070
S11300803EC000003CC000003AC00000D401DB01C7
S1130090DF01FD0104020B021202240224022E02DB
S11300A03502F101EB01F7014302500252026602EC
S11300B06802710273023F044104BD04BF04CF040B
S11300C05B02600211241FBECFEFD0E4DEBFCDBFC0
S11300D011E0A0E0B1E0EEECFDE000E00BBF02C0F7
S11300E007900D92A03DB107D9F722E0A0EDB1E051
S11300F001C01D92A435B207E1F75ED566C680CF74
S113010080911202813061F018F08330B9F01DC083
S113011080910502813009F079C0809312021BC0DE
S113012080910202909103024A9720F48091040284
S1130130813089F483E08093120263C080910502C8
S113014081115FC0109212020895813021F0833032
S113015009F457C0089520910B0230910C0230939A
S1130160FD012093FC018091020290910302FC01A5
S1130170EE0FFF1FEE5BFE4F608171814091000125
S113018050910101FB01E41BF50BE217F30778F42E
S1130190460F571F2417350750F42091FE01309164
S11301A0FF012F5F3F4F3093FF012093FE014091E9
S11301B0000250910102FC01EE0FFF1FE25FFE4FAF
S11301C020813181B901660F771F220F331F220F5F
S11301D0331F220F331F260F371F2417350750F400
S11301E001969093030280930202109201021092EE
S11301F0000208954F5F5F4F509301024093000245
S1130200089581E0809304021092050208958BE022
S1130210809381008DE790E090938900809388001B
S113022082E080936F001092850010928400809188
S1130230020190910301A0910401B0910501809302
S11302400D0290930E02A0930F02B09310028FB789
S113025080688FBF08951F920F920FB60F921124DA
S11302608F939F93AF93BF9380910D0290910E0251
S1130270A0910F02B09110020197A109B1098093D6
S11302800D0290930E02A0930F02B0931002892BDB
S11302908A2B8B2B99F481E08093110280910201C7
S11302A090910301A0910401B091050180930D0286
S11302B090930E02A0930F02B0931002BF91AF91DE
S11302C09F918F910F900FBE0F901F901895181645
S11302D019069CF440E050E077E063E00BC00000B6
S11302E02150310921153105D1F74F5F5F4F481770
S11302F0590719F0272F362FF2CF0895119888B98E
S1130300129A0000129882E090E0E1CF089581E013
S1130310F5CF0895813118F48158F0CF08958155AF
S1130320EDCF089584E690E0D2DF88E3E7DF86E04E
S1130330E5DF8FE0E3DF81E0E1DF8AE090E0C7CF33
S11303400895119A88B9129A0000129881E090E0F9
S1130350BECF08951F93CF93DF93FB019081992320
S113036059F0EB0111E0180FD5DF8991EADF88819C
S1130370882311F0812FF6CFDF91CF911F9108953B
S11303801F93CF93DF9330B1232F207F2093060256
S113039040911302842F90E08E30910508F069C0DB
S11303A0FC01EA5BFF4FFCC422230CF46CC081E027
S11303B08093130275C082E08093130273C02223DA
S11303C024F083E08093130281C035FD6BC08CE080
S11303D08093130270C035FF6EC08BE080931302CC
S11303E0DEC234FDDCC28DE08093130269C034FFA9
S11303F067C081E08093130253C022230CF066C0CF
S113040084E08093130264C022230CF461C085E06D
S11304108093130266C022230CF063C086E08093AD
S1130420130261C080910402882321F087E0809345
S1130430130225C222230CF456C081E080930402E7
S113044087E0809313021BC2222324F089E0809367
S1130450130293C288E08093130213C222230CF088
S11304608CC28AE0809313028AC282E080931302D2
S113047019C0842F90E08E30910508F090C2FC01E1
S1130480EC5AFF4F8DC481E045DF62EC71E081E0FE
S113049061DF67EB71E081E15DDF81E23BDF7FC219
S11304A036DF7DC281E036DF61EB71E081E052DF4F
S11304B081E230DF74C266E871E081E04BDF6FC235
S11304C026DF61EB71E081E045DF69C220DF67C2AE
S11304D081E020DF62EA71E081E03CDF81E21ADF43
S11304E05EC215DF5CC281E08093050210DF81E00B
S11304F011DF40910202509103029A01369527952B
S11305003695279536952795A5ECB0E24FD492956C
S113051082958F7089279F708927C8EED3E08C9FBE
S113052090018D9F300D9C9F300D1124421B530B65
S11305309A013695279536952795ABE7B4E136D4DD
S113054096958795805DFDDE4091020250910302ED
S11305509A013695279536952795ABE7B4E126D4CD
S11305609695879514E6189F9001199F300D1124D4
S1130570CA01821B930B9C01ADECBCEC17D496957D
S113058087959695879596958795805DDADE409157
S11305900202509103029A01ADECBCEC07D496958B
S11305A0879596958795969587959C01220F331F7D
S11305B0880F991F880F991F880F991F820F931F07
S11305C09A01281B390BC901805DBBDE85E0A2DEE0
S11305D04091FC015091FD019A013695279536957D
S11305E0279536952795A5ECB0E2E0D392958295B0
S11305F08F7089279F7089278C9F90018D9F300D64
S11306009C9F300D1124421B530B9A01369527955C
S113061036952795ABE7B4E1C9D396958795805D68
S113062090DE4091FC015091FD019A013695279589
S113063036952795ABE7B4E1B9D396958795189F7E
S11306409001199F300D1124CA01821B930B9C0148
S1130650ADECBCECABD3969587959695879596951E
S11306608795805D6EDE4091FC015091FD019A01F9
S1130670ADECBCEC9BD3969587959695879596950E
S113068087959C01220F331F880F991F880F991F8C
S1130690880F991F820F931F9A01281B390BC901D8
S11306A0805D4FDE8AE036DEE0910202F0910302C3
S11306B0EE0FFF1FEE5BFE4F408151819A0136958C
S11306C027953695279536952795A5ECB0E26ED3F8
S11306D0929582958F7089279F7089278C9F9001AE
S11306E08D9F300D9C9F300D1124421B530B9A019A
S11306F03695279536952795ABE7B4E157D396956C
S11307008795805D1EDEE0910202F0910302EE0FF8
S1130710FF1FEE5BFE4F408151819A01369527956C
S113072036952795ABE7B4E141D396958795189F05
S11307309001199F300D1124CA01821B930B9C0157
S1130740ADECBCEC33D396958795969587959695A5
S11307508795805DF6DDE0910202F0910302EE0FD1
S1130760FF1FEE5BFE4F408151819A01ADECBCEC62
S11307701DD39695879596958795969587959C0113
S1130780220F331F880F991F880F991F880F991FF5
S1130790820F931F9A01281B390BC901805DD1DD9B
S11307A081E1B8DD4091FE015091FF019A01369537
S11307B027953695279536952795A5ECB0E2F6D280
S11307C0929582958F7089279F7089278C9F9001BD
S11307D08D9F300D9C9F300D1124421B530B9A01A9
S11307E03695279536952795ABE7B4E1DFD29695F4
S11307F08795805DA6DD4091FE015091FF019A012D
S11308003695279536952795ABE7B4E1CFD29695E3
S11308108795189F9001199F300D1124CA01821BDE
S1130820930B9C01ADECBCECC1D296958795969543
S1130830879596958795805D84DD4091FE01509162
S1130840FF019A01ADECBCECB1D2969587959695D3
S11308508795969587959C01220F331F880F991FC2
S1130860880F991F880F991F820F931F9A01281BC5
S1130870390BC901805D65DD81E24CDD90C047DD47
S11308808EC081E047DD68E971E081E063DD6FE8F7
S113089071E081E15FDD89E13DDD4091FE01509130
S11308A0FF019A0136952795369527953695279514
S11308B0A5ECB0E27BD2929582958F7089279F70C8
S11308C0892768EE73E0869F9001879F300D969F7D
S11308D0300D1124421B530B9A01369527953695FA
S11308E02795ABE7B4E162D296958795805D29DDC3
S11308F04091FE015091FF019A0136952795369556
S11309002795ABE7B4E152D29695879564E6689F44
S11309109001699F300D1124CA01821B930B9C0125
S1130920ADECBCEC43D296958795969587959695B4
S11309308795805D06DD4091FE015091FF019A018B
S1130940ADECBCEC33D296958795969587959695A4
S113095087959C01220F331F880F991F880F991FB9
S1130960880F991F820F931F9A01281B390BC90105
S1130970805DE7DC81E2CEDC12C0C9DC10C01092DD
S113098005021092040210920302109202021092C5
S11309900102109200021092FF011092FE01DF91F9
S11309A0CF911F910895E1ECF0E08081886180830C
S11309B0E2ECF0E080818660808383E38093C4006E
S11309C01092C5000895E0ECF0E080818823ECF7F4
S11309D08091C60008958091C0008823CCF4F3DF91
S11309E080930A02F0DF8093090220910A0230E02A
S11309F0811105C030930C0220930B02089590E0FE
S1130A00982F8827280F391F30930C0220930B024C
S1130A10089538E040E008C011922F5F2830E1F7D4
S1130A2031500896332319F0FC01242FF5CF089593
S1130A3020E030E090E08095909515B8E5B1BC01D8
S1130A40022E02C0759567950A94E2F7AB01440F34
S1130A50551F440F551F440F551F48704E2B45B961
S1130A602D9A2F5F3F4F2830310539F72C9A08957E
S1130A70FF920F931F93CF93DF93F62EC0E0D0E045
S1130A80082F10E08F2DD4DF15B895B198010C2EE6
S1130A9002C0359527950A94E2F72170292B25B9D0
S1130AA02A9A2196C830D10569F7299ADF91CF9106
S1130AB01F910F91FF90089520910802283010F0A3
S1130AC0109208021092070220910802FC0138E0FB
S1130AD0239FE00DF11D112420E030E0819190E08E
S1130AE0022E02C0880F991F0A94E2F79091070220
S1130AF0692F682B609307022F5F3F4F2830310521
S1130B0069F721E030E00090080202C0220F331F91
S1130B100A94E2F7822FACDF809108028F5F809302
S1130B200802089580910502813029F08091040221
S1130B30813009F040C0E0910202F0910302EE0F0F
S1130B40FF1FEE5BFE4F40815181A6E7B1E0E3E277
S1130B50F2E026E831E061E08D919D914817590754
S1130B6011F4608301C010823197A217B307A1F773
S1130B702091FE013091FF0121153105C9F081E07A
S1130B8080935402ADECBCEC11D196958795969563
S1130B90879596958795009759F0E4E5F2E09F01D3
S1130BA0281B390BC90121E02293E817F907E1F763
S1130BB084E192E081CF0895CF93DF93CDB7DEB780
S1130BC028970FB6F894DEBF0FBECDBF8FE081B972
S1130BD080EF82B91FEF14B915B817B918B81AB84D
S1130BE01BB9A0DB94DBDFDE84E192E012DF84E159
S1130BF092E062DF109213021092120288E0E6E0A3
S1130C00F1E0DE01119601900D928A95E1F71093BF
S1130C10F10188EC90E0A0E0B0E08093F2019093C1
S1130C20F301A093F401B093F5018093F60190933E
S1130C30F701A093F801B093F90180EC91E090934F
S1130C40FB018093FA011093E60182E390E0A0E0B7
S1130C50B0E08093E7019093E801A093E901B09399
S1130C60EA018093EB019093EC01A093ED01B09322
S1130C70EE0180E890E09093F0018093EF011093EF
S1130C80DB0181E090E0A0E0B0E08093DC01909390
S1130C90DD01A093DE01B093DF018093E001909326
S1130CA0E101A093E201B093E3012BEE34E0309331
S1130CB0E5012093E4011093D0018093D101909336
S1130CC0D201A093D301B093D4018093D501909322
S1130CD0D601A093D701B093D80122E935E030932F
S1130CE0DA012093D9018093020190930301A09328
S1130CF00401B093050180930D0290930E02A0931A
S1130D000F02B093100283DA00E010E0C12CD12C62
S1130D103BC0F801EE0FFF1F81E090E08C0F9D1F98
S1130D20E80FF91FE080F180D70115964D915D9190
S1130D306D917C91189711968D919D910D90BC9118
S1130D40A02D481759076A077B0781F4F7018081B2
S1130D500184F285E02D992787FD90950995D701A7
S1130D608C93F7011582168217821086F70185810C
S1130D709681A781B0850196A11DB11D85839683B7
S1130D80A783B0870F5F1F4F0430110510F28091C5
S1130D9011028823E1F3109211020C2D1D2DF4CFC2
S1130DA0EE0FFF1F0590F491E02D0994A29FB0016E
S1130DB0B39FC001A39F700D811D1124911DB29F8B
S1110DC0700D811D1124911D0895F894FFCF2C
S1130DCE0A0001000000F101E601DB01D00101007F
S1130DDE01000200020002000200010001000200F4
S1130DEE02000200020001000100020002000100E4
S1130DFE01000100010001000100020002000200D6
S1130E0E02007500750085007500A0009400750041
S1130E1E750085007500B500A00075007500EB0027
S1130E2EC800A000A00094008500EB00EB00DE00DB
S1130E3EB500C800B500750085009400A000B5008B
S1130E4EC800DE00EB0053657474696E677300505E
S1130E5E6F696E74733A200047616D65204F766535
S1130E6E72004861707079204269727468646179A5
S1130E7E00536F6E677300427920416C6265727421
S1130E8E6F00526F636B204974204F7574210000FC
S9030000FC
